S014000046696E616C50726F6A6365742E737265634F
S11300000C9434000C9451000C9451000C94510045
S11300100C9453000C9451000C9451000C94510016
S11300200C9451000C9451000C9451000C94510008
S11300300C9451000C9451000C9451000C945100F8
S11300400C9451000C9451000C9451000C945100E8
S11300500C9451000C9451000C9451000C945100D8
S11300600C9451000C94510011241FBECFEFD8E022
S1130070DEBFCDBF11E0A0E0B1E0ECECF7E002C0E0
S113008005900D92AC32B107D9F721E0ACE2B1E0B2
S113009001C01D92A133B207E1F70E94E7000C945E
S11300A0E4030C9400001F920F920FB60F921124D8
S11300B08F939F93359B05C010922F0110922E01B0
S11300C006C081E090E090932F0180932E019F91D0
S11300D08F910F900FBE0F901F9018950E94E5010D
S11300E088E091E00E94EF01089580912C019091A5
S11300F02D01892B21F08BB1877F8BB908958BB1AA
S113010088608BB985B1877C85B988B1877E88B9C9
S11301100895CF93DF93D82F81E090E090932D0141
S113012080932C018CE592E1909389008093880060
S1130130C0E03CC00E941B018093300120912E013D
S113014030912F01232B19F485508B3038F485B16D
S1130150877C85B988B1877E88B9C0E0C33048F40C
S113016095B1EC2FF0E0ED5FFE4F8081892B85B9CE
S113017008C098B1EC2FF0E0E150FF4F8081892B4B
S113018088B90E946E00E0910601F0910701EC0F1E
S1130190F11D80810E94AF012FEF83ED90E3215088
S11301A080409040E1F700C00000CF5FCD1710F20F
S11301B010922D0110922C0184E195E09093890016
S11301C0809388000E94E501DF91CF9108950E94F9
S11301D0020285E191E00E94EF010E945B010E940E
S11301E074010E9430020E9484010E9480010E94D6
S11301F01B01809330010E94750080912E01909123
S11302002F01892B29F48091300185508B3048F4DB
S113021085E00E9489008FE39CE90197F1F700C013
S113022000009FEF21EE84E0915020408040E1F7F0
S113023000C00000DCCF88B1816088B98FE39CE9FD
S11302400197F1F700C0000088B18E7F88B916BC11
S113025003C086B58B3F68F5319BFBCF16BC05C048
S113026086B58B3F10F016BC02C03199F9CF66B544
S113027070E0762F6627770F770F072E000C880B18
S1130280990B0E94EB0220E034E244E759E40E9417
S1130290770320E034E244E75BE40E94480220E074
S11302A030E048E652E40E9448020E94BA02862FD7
S11302B008958FEF089517B880E288B98AB18860ED
S11302C08AB98BB1877F8BB984B1886384B985B1CE
S11302D0877C85B987B1886187B988B1877E88B9F9
S11302E087B1816087B90895E8E6F0E08081826093
S11302F08083ECE6F0E080818062808378940895C6
S113030085B5856085BD0895E0E8F0E08081826070
S11303108083A1E8B0E08C9188618C938C91826099
S11303208C9380E49CE9909387008093860080817D
S11303308068808384B1826084B9089585B18460C3
S113034085B985E08A95F1F7000085B18B7F85B981
S11303508FE99FE00197F1F700C000000895CF9363
S1130360C82F85B1816085B980910001883021F45E
S1130370CBB90E949E010CC08C2F807F8BB90E9448
S11303809E0120E1C29FC00111248BB90E949E01ED
S1130390CF910895CF93C82F85B18E7F85B9809171
S11303A00001883021F4CBB90E949E010CC08C2F2F
S11303B0807F8BB90E949E0120E1C29FC00111245D
S11303C08BB90E949E01CF91089581E00E94CA01D9
S11303D08FE39FE10197F1F700C0000008950F93A8
S11303E01F93CF938C01C0E003C00E94AF01CF5F85
S11303F0F801EC0FF11D80818111F7CFCF911F918E
S11304000F9108952FEF80E792E0215080409040B3
S1130410E1F700C0000080910001883019F48FEFEB
S11304208AB903C08AB1806F8AB91BB884B1856068
S113043084B980910001883021F488E30E94CA01C4
S113044006C082E00E94CA0188E20E94CA018CE0D0
S11304500E94CA010E94E50186E00E94CA01089533
S1130460E0ECF0E08081826080831092C5008FEC24
S11304708093C400E2ECF0E0808186608083E1EC4C
S1130480F0E080818061808380818860808308952A
S11304900E945C020C943D030E94360358F00E94B3
S11304A02F0340F029F45F3F29F00C9426035111E7
S11304B00C9471030C942C030E944E0368F399234B
S11304C0B1F3552391F3951B550BBB27AA2762174C
S11304D07307840738F09F5F5F4F220F331F441F59
S11304E0AA1FA9F335D00E2E3AF0E0E832D091508D
S11304F05040E695001CCAF72BD0FE2F29D0660F7A
S1130500771F881FBB1F261737074807AB07B0E8BC
S113051009F0BB0B802DBF01FF2793585F4F3AF0C2
S11305209E3F510578F00C9426030C9471035F3FB1
S1130530E4F3983ED4F3869577956795B795F79548
S11305409F5FC9F7880F911D9695879597F9089530
S1130550E1E0660F771F881FBB1F621773078407CC
S1130560BA0720F0621B730B840BBA0BEE1F88F7DB
S1130570E09508950E94560388F09F5798F0B92F8C
S11305809927B751B0F0E1F0660F771F881F991FC4
S11305901AF0BA95C9F714C0B13091F00E947003F3
S11305A0B1E008950C947003672F782F8827B85F03
S11305B039F0B93FCCF3869577956795B395D9F71C
S11305C03EF490958095709561957F4F8F4F9F4F26
S11305D00895E89409C097FB3EF490958095709532
S11305E061957F4F8F4F9F4F9923A9F0F92F96E97B
S11305F0BB279395F695879577956795B795F111F0
S1130600F8CFFAF4BB0F11F460FF1BC06F5F7F4F8C
S11306108F4F9F4F16C0882311F096E911C077239E
S113062021F09EE8872F762F05C0662371F096E8A7
S1130630862F70E060E02AF09A95660F771F881F76
S1130640DAF7880F9695879597F9089597F99F6734
S113065080E870E060E008959FEF80EC0895002446
S11306600A941616170618060906089500240A9413
S113067012161306140605060895092E0394000C99
S113068011F4882352F0BB0F40F4BF2B11F460FF28
S113069004C06F5F7F4F8F4F9F4F089557FD905851
S11306A0440F551F59F05F3F71F04795880F97FB32
S11306B0991F61F09F3F79F08795089512161306EC
S11306C01406551FF2CF4695F1DF08C0161617061B
S11306D01806991FF1CF8695710561050894089550
S11306E0E894BB2766277727CB0197F908950E94E2
S11306F08A030C943D030E942F0338F00E943603B2
S113070020F0952311F00C9426030C942C0311244F
S11307100C9471030E944E0370F3959FC1F3950FDF
S113072050E0551F629FF001729FBB27F00DB11D71
S1130730639FAA27F00DB11DAA1F649F6627B00D01
S1130740A11D661F829F2227B00DA11D621F739FEA
S1130750B00DA11D621F839FA00D611D221F749FF8
S11307603327A00D611D231F849F600D211D822F3F
S1130770762F6A2F11249F5750409AF0F1F0882366
S11307804AF0EE0FFF1FBB1F661F771F881F915093
S11307905040A9F79E3F510580F00C9426030C9419
S11307A071035F3FE4F3983ED4F38695779567959C
S11307B0B795F795E7959F5FC1F7FE2B880F911DBD
S10F07C09695879597F90895F894FFCF5B
S11307CC040810081020250157656C636F6D6521B2
S11307DC21202D2000496E697469616C697A696EF7
S10F07EC672E2E2E00313233343500000D
S9030000FC
