S00D00004857345F312E73726563B4
S11300000C9434000C9451000C9451000C94510045
S11300100C9451000C9453000C9451000C94510016
S11300200C9451000C9451000C9451000C94510008
S11300300C9451000C9451000C9451000C945100F8
S11300400C9451000C9451000C9451000C945100E8
S11300500C9451000C9451000C9451000C945100D8
S11300600C9451000C94510011241FBECFEFD8E022
S1130070DEBFCDBF11E0A0E0B1E0EAE3F3E002C0EF
S113008005900D92A231B107D9F721E0A2E1B1E0C8
S113009001C01D92A631B207E1F70E949B000C94A7
S11300A09B010C9400001F920F920FB60F92112423
S11300B02F938F939F934B9B0AC08091140190912F
S11300C015010196909315018093140109C0809144
S11300D014019091150101969093150180931401D8
S11300E010921301109212012FEF81EE94E021502F
S11300F080409040E1F700C000009F918F912F91C4
S11301000F900FBE0F901F90189580E284B915B818
S11301101AB89BB180910001892B8BB90895E8E648
S1130120F0E0808184608083EDE6F0E08081886A7D
S11301308083789408950E9485000E948F000E9415
S1130140D9008091140190911501181619063CF5F7
S1130150809114019091150163E070E00E945101B7
S1130160892BE9F48091120190911301892BB9F440
S113017081E090E0909313018093120182E091E07A
S11301800E94F8006091140170911501072E000C73
S1130190880B990B0E940E018AE00E94F1002FEF58
S11301A081EE94E0215080409040E1F700C00000CF
S11301B0C8CFE0ECF0E08081826080831092C500BB
S11301C08FEC8093C400E2ECF0E080818660808351
S11301D0E1ECF0E0808180618083808188608083AD
S11301E008959091C00095FFFCCF8093C6000895B8
S11301F00F931F93CF93DF938C01C0E0D0E003C033
S11302000E94F1002196F801EC0FFD1F80818111FD
S1130210F7CFDF91CF911F910F9108950F931F9303
S1130220CF93DF93CDB7DEB72A970FB6F894DEBF2E
S11302300FBECDBF00E010E014C02AE030E040E083
S113024050E00E946501E1E0F0E0EC0FFD1FE00FDB
S1130250F11F605D6083622F732F842F952F0F5FD2
S11302601F4F611571058105910539F70150110979
S11302700BC0E1E0F0E0EC0FFD1FE00FF11F808107
S11302800E94F1000150110911239CF72A960FB620
S1130290F894DEBF0FBECDBFDF91CF911F910F91B8
S11302A0089597FB072E16F4009407D077FD09D024
S11302B00E94870107FC05D03EF4909581959F4FDD
S11302C00895709561957F4F0895A1E21A2EAA1B97
S11302D0BB1BFD010DC0AA1FBB1FEE1FFF1FA217F2
S11302E0B307E407F50720F0A21BB30BE40BF50BEF
S11302F0661F771F881F991F1A9469F76095709578
S1130300809590959B01AC01BD01CF010895AA1B76
S1130310BB1B51E107C0AA1FBB1FA617B70710F0EC
S1130320A61BB70B881F991F5A95A9F7809590951E
S10D0330BC01CD010895F894FFCF3D
S113033AA80043757272656E7420436F756E743AC1
S105034A20008D
S9030000FC
