:100000000C9434000C943E000C943E000C943E0082
:100010000C943E000C943E000C943E000C943E0068
:100020000C943E000C943E000C943E000C943E0058
:100030000C943E000C943E000C943E000C943E0048
:100040000C943E000C943E000C943E000C943E0038
:100050000C943E000C943E000C943E000C943E0028
:100060000C943E000C943E0011241FBECFEFD8E04C
:10007000DEBFCDBF0E9467000C9482000C9400008C
:10008000ACE7B0E09C9190649C93EAE7F0E090814B
:100090009760908390819068908390819062908324
:1000A0009C912C91907E892B822B8C9380818064F3
:1000B0008083089580917A0084FFFCCF809178003E
:1000C0009091790008958FEF8AB91BB8089580E068
:1000D0000E9440000E9463000E945A009C01220F6F
:1000E000232F221F330B81E090E002C0880F991F5D
:1000F0002A95E2F78BB98FE39CE90197F1F700C0ED
:080100000000EACFF894FFCFE4
:00000001FF
