:100000000C9434000C943E000C943E000C943E0082
:100010000C943E000C943E000C943E000C943E0068
:100020000C943E000C943E000C943E000C943E0058
:100030000C943E000C943E000C943E000C943E0048
:100040000C943E000C943E000C943E000C943E0038
:100050000C943E000C943E000C943E000C943E0028
:100060000C943E000C943E0011241FBECFEFD8E04C
:10007000DEBFCDBF0E9440000C9466000C940000CF
:100080008FEF8AB920E030E01DC081E090E0022EC1
:1000900002C0880F991F0A94E2F740E850E0022E50
:1000A00002C0559547950A94E2F7842B8BB94FEF20
:1000B00089E698E1415080409040E1F700C000009F
:1000C0002F5F3F4F2430310504F3DCCFF894FFCF8E
:00000001FF
