S00D00004857345F322E73726563B3
S11300000C9434000C9446000C9446000C94460066
S11300100C9446000C9446000C9446000C94460044
S11300200C9446000C9446000C9446000C94460034
S11300300C9446000C9446000C9448000C94460022
S11300400C9446000C9446000C9446000C94460014
S11300500C9446000C9446000C9446000C94460004
S11300600C9446000C94460011241FBECFEFD8E038
S1130070DEBFCDBF21E0A0E0B1E001C01D92A630FB
S1130080B207E1F70E9460000C94C9000C940000D0
S11300901F920F920FB60F9211248F939F9380910A
S11300A00401909105010196909305018093040148
S11300B016BC9F918F910F900FBE0F901F901895B3
S11300C08FEF8AB985B5856085BD80E887BDEEE68A
S11300D0F0E0808182608083789480910401909123
S11300E0050180349105C9F71092050110920401AD
S11300F08091000190910101843091051CF52091BB
S1130100020130910301232BE9F441E050E0082E71
S113011002C0440F551F0A94E2F720E130E0B90110
S113012002C0660F771F8A95E2F7CB01842B8BB947
S113013080910001909101010196909301018093B7
S11301400001CBCF21E030E0309303012093020182
S113015018161906CCF401979093010180930001BD
S113016041E050E0082E02C0440F551F0A94E2F704
S113017020E130E0B90102C0660F771F8A95E2F7EB
S1130180CB01842B8BB9A9CF1092030110920201E9
S1090190A4CFF894FFCF98
S9030000FC
