S00D000061727261792E73726563F8
S11300000C9434000C9449000C9449000C9449005D
S11300100C9449000C9449000C9449000C94490038
S11300200C9449000C9449000C9449000C94490028
S11300300C9449000C9449000C9449000C94490018
S11300400C9449000C9449000C9449000C94490008
S11300500C9449000C9449000C9449000C944900F8
S11300600C9449000C94490011241FBECFEFD8E032
S1130070DEBFCDBF11E0A0E0B1E0E8E1F1E002C0F5
S113008005900D92AC30B107D9F70E944B000C9447
S11300908A000C940000CF93DF93CDB7DEB72C9782
S11300A00FB6F894DEBF0FBECDBF8FEF8AB986E0DE
S11300B0E0E0F1E0DE01119601900D928A95E1F7FE
S11300C086E0E6E0F1E0DE01179601900D928A9554
S11300D0E1F780E090E01AC0E1E0F0E0EC0FFD1FF2
S11300E0E80FF91F3081E7E0F0E0EC0FFD1FE80FA7
S11300F0F91F2081232B2BB92FEF39E648E121503A
S113010030404040E1F700C0000001968630910580
S10B01101CF3DFCFF894FFCFCC
S10F011801020408204080402010040272
S9030000FC
