:100000000C9434000C9449000C9449000C94490061
:100010000C9449000C9449000C9449000C9449003C
:100020000C9449000C9449000C9449000C9449002C
:100030000C9449000C9449000C9449000C9449001C
:100040000C9449000C9449000C9449000C9449000C
:100050000C9449000C9449000C9449000C944900FC
:100060000C9449000C94490011241FBECFEFD8E036
:10007000DEBFCDBF11E0A0E0B1E0ECEBF1E002C0EB
:1000800005900D92A830B107D9F70E944B000C944F
:10009000DC000C940000CF93DF9300D000D01F92BF
:1000A000CDB7DEB714B80E94A70085E0E2E0F1E02A
:1000B000DE01119601900D928A95E1F763B16F7D93
:1000C00080E090E01FC0AC014F5F5F4F262F30E013
:1000D000042E02C0359527950A94E2F720FF09C047
:1000E000E1E0F0E0EC0FFD1FE80FF91F2FE42083A3
:1000F00008C0E1E0F0E0EC0FFD1FE80FF91F28E574
:100100002083CA0184309105F4F200E010E00EC0B3
:10011000E1E0F0E0EC0FFD1FE00FF11F80810E9495
:10012000BF0080E20E94BF000F5F1F4F0430110527
:100130007CF380E091E00E94C6002FEF87EA91E611
:10014000215080409040E1F700C00000B7CFE0ECC4
:10015000F0E08081826080831092C5008FEC8093F4
:10016000C400E2ECF0E0808186608083E1ECF0E0A6
:1001700080818061808380818860808308959091F0
:10018000C00095FFFCCF8093C60008950F931F9386
:10019000CF93DF938C01C0E0D0E003C00E94BF008A
:1001A0002196F801EC0FFD1F80818111F7CFDF91BF
:0C01B000CF911F910F910895F894FFCF9C
:0801BC000A00585858580000D1
:00000001FF
